:020000040800F2
:10000000D8160020A9010008C5250008AD02000887
:10001000C125000827040008EB4300080000000089
:10002000000000000000000000000000D12A0008CD
:10003000AD04000800000000FB010008752B00085B
:10004000C3010008C3010008C3010008C301000880
:10005000C3010008C3010008C3010008C301000870
:10006000C3010008C3010008C3010008C301000860
:10007000C3010008C3010008C3010008C301000850
:10008000C3010008C3010008C3010008000000000C
:10009000000000000000000000000000C301000894
:1000A000C3010008C3010008C3010008C301000820
:1000B000C3010008C3010008C3010008C301000810
:1000C000C3010008C3010008C3010008C301000800
:1000D000C3010008653100087D3100080000000000
:1000E000C3010008C3010008C301000800000000AC
:1000F000000000000000000000000000C301000834
:1001000000000000C3010008C3010008C30100088B
:1001100000000000000000000000000000000000DF
:10012000C3010008C30100082D040008C301000832
:10013000C3010008000000000000000000000000F3
:100140000000000000000000000000000126000880
:10015000C3010008C30100083D040008C3010008F2
:10016000C3010008C30100080000000000000000F7
:10017000000000000000000000000000000000007F
:1001800000000000C30100080000000000000000A3
:10019000C3010008DFF80CD000F0F2F80048004777
:1001A00019040008D8160020064880470648004772
:1001B000FEE7FEE7FEE7FEE7FEE7FEE7FEE7FEE717
:1001C000FEE7FEE7892B000895010008EFF3108099
:1001D00072B6704780F310887047394A1368012B54
:1001E00004D04FF001031360364A1060364A1160A4
:1001F00036484FF0805101607047EFF3108272B6BD
:100200002F48016821B34FF0000101602D480168BB
:1002100091B1EFF309811EF0100F08BF21ED108B93
:1002200021E9F00F4FF000041EF0100F08BF012469
:1002300041F8044D0068016023490968096808C94C
:10024000B1E8F00F002B18BFB1EC108B81F30988D7
:1002500082F310884EF0100E002B18BF2EF0100EF7
:100260004EF0040E704718490860EFF3148222F034
:10027000040282F3148813494FF00000086010490B
:100280004FF00100086012484FF47F01D0F80020C1
:1002900041EA020101600D484FF0805101600D48B4
:1002A0000068006880F3088862B67047EFF3098041
:1002B00000B504F053FE5DF804EB4EF0040E7047F9
:1002C000240100201C0100202001002004ED00E09A
:1002D00020ED00E008ED00E0D2B201E000F8012BD3
:1002E000491EFBD270470022F6E710B513460A46B6
:1002F00004461946FFF7F0FF204610BD2DE9F05FD8
:100300000546002092469B46884606468146402484
:100310001BE0284641464746224600F020F8534657
:100320005A46C01A914110D311461846224600F091
:1003300039F82D1A67EB01084F46224601200021AB
:1003400000F030F817EB00094E41201EA4F1010423
:10035000DFDC484631462A464346BDE8F09F202A66
:1003600004DB203A21FA02F00021704721FA02F35F
:10037000D040C2F120029140084319467047000066
:10038000064C074D06E0E06840F0010394E80700E2
:1003900098471034AC42F6D3FFF700FFD869000845
:1003A000F8690008202A04DB203A00FA02F1002054
:1003B00070479140C2F1200320FA03F319439040A3
:1003C000704770B58C1810F8015B15F0070301D168
:1003D00010F8013B2A1106D110F8012B03E010F8A8
:1003E000016B01F8016B5B1EF9D12B0705D40023CB
:1003F000521E0DD401F8013BFAE710F8013BCB1A6D
:10040000921C03E013F8015B01F8015B521EF9D561
:10041000A142D8D3002070BD10B5FFF7D7FE05F07C
:1004200015FF002010BD00BFFEE7000010B5024917
:10043000486B00F0FDF910BD3802002010B50249EC
:10044000086B00F0F5F910BD38020020014608786D
:1004500010381823B0FBF3F20848805C4865032A83
:1004600005D908686FF30900001D086503E00868F6
:100470006FF309000865086D70470000A068000868
:1004800030B50468246824F4802405682C6004686E
:1004900063608468402C04D10468A2600468E16051
:1004A00003E00468A1600468E26030BD70470000AA
:1004B000014621293ED2DFE801F011131517191B5F
:1004C0001D1F212325273D3D3D3D292B3D3D3D2D34
:1004D0003D3D2F313335373D3D393B0017A02BE0F3
:1004E00017A029E01AA027E01EA025E022A023E003
:1004F00029A021E030A01FE036A01DE043A01BE0B2
:1005000045A019E048A017E04BA000BF53A013E09E
:1005100056A011E059A00FE061A00DE064A00BE02F
:1005200066A009E069A007E06DA005E071A003E006
:1005300073A001E075A000BF00BF70474F4B0000E3
:10054000CAFDBEDDB0FCBDD3CAD5B4EDCEF300000C
:10055000B4ABB8D0C6F7C9CFC3BBD3D0CAD6D6B810
:1005600000000000C2BCC8EBD6B8CEC6CDBCCFF1EF
:10057000CAA7B0DC00000000D6B8CEC6CDBCCFF113
:10058000CCABB8C9A1A2CCABB5ADB6F8C9FAB2BB79
:10059000B3C9CCD8D5F70000D6B8CEC6CDBCCFF104
:1005A000CCABCAAAA1A2CCABBAFDB6F8C9FAB2BB11
:1005B000B3C9CCD8D5F70000D6B8CEC6CDBCCFF1E4
:1005C000CCABC2D2B6F8C9FAB2BBB3C9CCD8D5F756
:1005D00000000000D6B8CEC6CDBCCFF1D5FDB3A388
:1005E000A3ACB5ABCCD8D5F7B5E3CCABC9D9A3A8F0
:1005F000BBF2C3E6BBFDCCABD0A1A3A9B6F8C9FA48
:10060000B2BBB3C9CCD8D5F700000000D6B8CEC66F
:10061000B2BBC6A5C5E40000C3BBCBD1CBF7B5BD0B
:10062000D6B8CEC600000000CCD8D5F7BACFB2A25B
:10063000CAA7B0DC00000000B7C3CECAD6B8CEC689
:10064000BFE2CAB1B5D8D6B7D0F2BAC5B3ACB3F62B
:10065000D6B8CEC6BFE2B7B6CEA70000C9BEB3FDBE
:10066000C4A3B0E5CAA7B0DC00000000C7E5BFD551
:10067000D6B8CEC6BFE2CAA7B0DC0000BBBAB3E5AD
:10068000C7F8C4DAC3BBD3D0D3D0D0A7D4ADCABCCB
:10069000CDBCB6F8C9FAB2BBB3C9CDBCCFF100002E
:1006A000B6C1D0B420464C41534820B3F6B4ED0057
:1006B000CEB4B6A8D2E5B4EDCEF30000CEDED0A71E
:1006C000BCC4B4E6C6F7BAC500000000BCC4B4E6BA
:1006D000C6F7C9E8B6A8C4DAC8DDB4EDCEF30000A9
:1006E000BCC7CAC2B1BED2B3C2EBD6B8B6A8B4EDCD
:1006F000CEF30000D6B8CEC6BFE2C2FA00000000BA
:10070000B5D8D6B7B4EDCEF300000000C4A3BFE95E
:10071000B7B5BBD8C8B7C8CFC2EBD3D0CEF30000B3
:1007200000BFFEE710B500244FF48061094800F0D7
:10073000EDFA012806D101222021064800F0EEFA48
:10074000012405E000222021024800F0E7FA0024FD
:10075000204610BD000002400146024B5A18107896
:10076000704700000000020800B587B000BF0020FD
:1007700001901548006840F00100134908600846E0
:10078000006800F00100019000BF00BF0815029052
:100790000020039002200490059002A90B4800F06D
:1007A000CBF92020029001200390049002200590B4
:1007B00002A9064800F0C0F900222021034800F0F9
:1007C000ADFA07B000BD0000303802400000024022
:1007D00070B5044600252068006820F001002168FB
:1007E000086000F0A1FA054612E000F09DFA401BF7
:1007F000B0F57A7F0CD9E06C40F02000E06400BFD7
:10080000002084F8340000BF032084F8350070BD58
:100810002068006800F001000028E6D100BF84F8DD
:10082000340000BF012084F835000020EFE700000D
:1008300070B50446256D286894F85420082191402D
:10084000084000B32068006800F00400D8B12068B8
:10085000006820F004002168086094F85410082013
:100860008840A860E06C40F00100E064042084F857
:10087000350000BF002084F8340000BFA06C10B128
:100880002046A16C8847286894F854206D4991400F
:10089000084000B32068406900F08000D8B12068AB
:1008A000406920F080002168486194F85410654840
:1008B0008840A860E06C40F00200E064042084F806
:1008C000350000BF002084F8340000BFA06C10B1D8
:1008D0002046A16C8847286894F854205949C91CBF
:1008E0009140084008B32068006800F00200E0B1C1
:1008F0002068006820F002002168086094F8541015
:100900005048C01C8840A860E06C40F00400E064DF
:10091000042084F8350000BF002084F8340000BFB4
:10092000A06C10B12046A16C8847286894F8542028
:10093000102191400840C0B32068006800F0080012
:1009400098B32068006800F48020B0B194F8541087
:1009500010208840A8602068006800F4002018B9C2
:10096000312084F835001BE02068006800F4002086
:10097000B0B1412084F8350012E02068006800F42E
:10098000807028B92068006820F00800216808609D
:1009900094F8541010208840A860312084F8350065
:1009A000206C10B12046216C8847286894F85420A8
:1009B00020219140084018B32068006800F0100022
:1009C000F0B12068006800F48020D0B194F8541091
:1009D00020208840A8602068006800F4002028B922
:1009E000606C68B12046616C884729E02068006827
:1009F00000F4002020B1E06B10B12046E16B884785
:100A00001EE02068006800F4807028B92068006843
:100A100020F010002168086094F8541020208840CD
:100A2000A860E06CE064112084F8350000BF00206D
:100A300084F8340000BFE06B10B12046E16B8847BA
:100A400070BD00000100800070B5044600250CB99F
:100A5000012070BD606A00B100BF022084F835003B
:100A60002068056818480540D4E901010843E16899
:100A700008432169084361690843A1690843E169A2
:100A80000843216A08430543606A042803D1D4E976
:100A90000B0108430543206805602068456925F07F
:100AA0000705606A0543606A042801D1A06A05430E
:100AB000206845612046FFF7C9FC0020E064012062
:100AC00084F835000020C4E73F8010F02DE9F041A4
:100AD00004460D4616461F4600BF94F83400012810
:100AE00002D10220BDE8F081012084F8340000BF6B
:100AF000022084F835002068006820F00100216899
:100B000008603B46324629462046FFF7B9FC20687C
:100B1000006840F01E00216808602068406940F0CD
:100B20008000216848612068006840F00100216869
:100B300008600020D6E70000F8B503460A46002505
:100B4000002400200021CDE0012606FA01F51668F8
:100B500006EA0504AC4273D15668022E02D05668EC
:100B6000122E13D1CF0803F1200656F827004E07A6
:100B7000F70E0F26BE40B0434F07FF0E1669BE406A
:100B80003043CF0803F1200646F8270018684F00CD
:100B90000326BE40B043167906F003064F00BE4060
:100BA000304318605668012E08D05668022E05D0D2
:100BB0005668112E02D05668122E13D198684F0035
:100BC0000326BE40B0434F00D668BE403043986015
:100BD000586801268E40B0431679C6F300168E4041
:100BE00030435860D8684F000326BE40B0434F00E2
:100BF0009668BE403043D860566806F08056B6F11D
:100C0000805F6ED100BF00260096384E366846F4ED
:100C10008046364F3E603E46366806F48046009673
:100C200000BF00BF324E8F0856F827008E07370FDF
:100C30000F26BE40B0432F4EB34202D1002615E02E
:100C40004FE02D4EB34201D101260FE02B4EB342AF
:100C500001D102260AE02A4EB34201D1032605E063
:100C6000284EB34201D1042600E005268F073F0F2E
:100C7000BE4030431E4E8F0846F82700224E306893
:100C8000A043566806F48036B6F5803F00D1204375
:100C90001D4E3060361D3068A043566806F400369D
:100CA000B6F5003F00D12043174E361D3060361D8B
:100CB0003068A043566806F48016B6F5801F00D150
:100CC0002043114E08363060361D3068A043566808
:100CD00006F40016B6F5001F00D120430A4E0C366C
:100CE0003060491C1029FFF42FAFF8BD4438024092
:100CF00008380140000002400004024000080240A1
:100D0000000C024000100240003C01400246136902
:100D10000B400BB1012000E0002070470AB1816157
:100D200001E00B04836170470148006870470000D0
:100D30001000002002480068401C0149086070470C
:100D40001000002010B50D48006840F400700B49F9
:100D500008600846006840F4806008600846006843
:100D600040F480700860032000F06CF80F2000F061
:100D700007F800F017F8002010BD0000003C02400A
:100D800070B5044600F054FE4FF47A71B0FBF1F5F3
:100D9000284601F007F900222146501E00F014F801
:100DA000002070BD08B50020009000BF08BD00BF46
:100DB00000F01F02012191404209920002F1E0225D
:100DC000C2F8001100BF70472DE9F05F80460D4664
:100DD0001646002701F0F8FB074639462A463346F7
:100DE00001F00700C0F1070ABAF1040F02D94FF071
:100DF000040A01E0C0F1070AD14600F1040ABAF181
:100E0000070F02D24FF0000A01E0A0F1030AD44616
:100E10004FF0010A0AFA09FAAAF1010A0AEA020ADB
:100E20000AFA0CFA4FF0010B0BFA0CFBABF1010BB9
:100E30000BEA030B4AEA0B042146404601F0CCFBC7
:100E4000BDE8F09F00BF00F00702064B19684FF69F
:100E5000FF031940044B0B4343EA0221014B196085
:100E600000BF70470CED00E00000FA0510B5044625
:100E7000D4F8B40302F0B4FB10BD70B504460D46BF
:100E8000C5EBC50304F1380101EB8301CA682946AB
:100E9000D4F8B40302F0F4FA70BD70B504460D4600
:100EA000C5EBC50304F5EE7101EB8301CA68294661
:100EB000D4F8B40302F051FB70BD10B50446D4F869
:100EC000B40302F090FB10BD70B504460D4605F06A
:100ED0008000802808D105F07F00C0EBC00104F13C
:100EE000380000EB810605E0C5EBC50104F5EE70A6
:100EF00000EB81060020B07005F07F003070C5F374
:100F0000C010707000BF94F88003012801D1022046
:100F100070BD012084F8800300BF3146206802F0D4
:100F2000B7FF00BF002084F8800300BF00BFEFE7D9
:100F30002DE9F04705460E4690461F464FF0000942
:100F400006F08000802808D106F07F00C0EBC001C9
:100F500005F1380000EB810407E006F07F00C0EBEC
:100F6000C00105F5EE7000EB810406F07F002070F3
:100F700006F08000C0096070C4F80880E7706078EF
:100F800008B12078E080022F01D10020207100BF3D
:100F900095F88003012802D10220BDE8F0870120E6
:100FA00085F8800300BF2146286802F0F3FD00BFEA
:100FB000002085F8800300BF4846EEE72DE9F041A8
:100FC00004460E461746984606F07F00C0EBC00167
:100FD00004F5EE7000EB8105EF60C5F81480002089
:100FE000A861687006F07F0028702069012800D190
:100FF0002F6100BF94F88003012802D10220BDE8D0
:10100000F081012084F8800300BF06F07F0028B93A
:10101000227C2946206802F041FE04E0227C294619
:10102000206802F0BFFF00BF002084F8800300BFEB
:1010300000BFE4E770B504460D4605F08000802847
:1010400008D105F07F00C0EBC00104F1380000EBCF
:10105000810605E0C5EBC50104F5EE7000EB8106E5
:101060000120B07005F07F003070C5F3C0107070C3
:1010700000BF94F88003012801D1022070BD012037
:1010800084F8800300BF3146206802F045FF05F078
:101090007F0028B9217C04F56172206802F0D6FE39
:1010A00000BF002084F8800300BF00BFE6E72DE901
:1010B000F04104460E461746984606F07F00C0EB06
:1010C000C00104F1380000EB8105EF60C5F8148021
:1010D0000020A8610120687006F07F002870206958
:1010E000012800D12F6100BF94F88003012802D1AC
:1010F0000220BDE8F081012084F8800300BF06F0E3
:101100007F0028B9227C2946206802F0C7FD04E050
:10111000227C2946206802F045FF00BF002084F8A9
:10112000800300BF00BFE4E72DE9F84F04462668BE
:101130004FF0000AD346D04600250020009000273B
:10114000206803F0D1F800286BD1206803F004F97F
:1011500008B9BDE8F88F206803F0FEF800F002003F
:10116000022805D12068406900F00200216848612A
:10117000206803F0F1F800F40020B0F5002F7CD1D6
:101180000025206803F0BEF8834673E00BF00100F1
:1011900000286CD0E9B2206803F0D3F8804608F04C
:1011A0000100E8B3012106F5306000EB45108160D5
:1011B000206901282BD1C5EBC50104F5EE7000EBC9
:1011C0008100816806F5306000EB45100069C0F3CE
:1011D0001200091AC5EBC50204F5EE7000EB82009F
:1011E0008161C5EBC50104F5EE7000EB8100C5EB34
:1011F000C502C16804F5EE7000EB8200806801440E
:10120000C5EBC50204F5EE7000EB8200C160E9B2E7
:101210002046FFF742FE2069012811D105B901E0FF
:101220000EE02EE2C5EBC50104F5EE7000EB810087
:10123000406928B904F561720121206802F006FEB8
:1012400008F00800082808D1204600F076FA0821A6
:1012500006F5306000EB4510816008F010001028A2
:1012600005D1102106F5306000EB451081606D1C42
:101270004FEA5B0BBBF1000F88D1206803F06CF8DC
:1012800000F48020B0F5802F7ED1206803F031F883
:101290008346002583E00BF0010000287CD0E9B2F2
:1012A000206803F038F8804608F00100F0B3012010
:1012B000A840009040F6340080590099884340F6D9
:1012C00034018851012106F5106000EB4510816062
:1012D0002069012815D1C5EBC50104F1380000EBE8
:1012E0008100C5EBC502C16804F1380000EB820043
:1012F00080680144C5EBC50204F1380000EB8200B0
:10130000C160E9B22046FFF7B8FD2069012810D17D
:1013100065B9C5EBC50104F1380000EB81004069F7
:1013200020B904F561720121206800E001E002F0BB
:101330008DFD08F00800082805D1082106F5106089
:1013400000EB4510816008F01000102805D1102135
:1013500006F5106000EB4510816008F04000402861
:1013600005D1402106F5106000EB4510816008F0C2
:101370000200022805D1022106F5106000EB45109D
:10138000816008F0800001E00DE005E0802803D1D5
:101390002946204601F03CF96D1C4FEA5B0BBBF17E
:1013A000000F7FF478AF206802F0D6FF00F0004015
:1013B000B0F1004F10D140F60400805920F0010137
:1013C00040F604008151204600F090F92068406901
:1013D00000F0004021684861206802F0BDFF00F481
:1013E0000060B0F5006F0ED140F60800805900F0A3
:1013F000010010B1204600F0A9F92068406900F40E
:10140000006021684861206802F0A6FF00F4805067
:10141000B0F5805F5CD140F60400805920F00101F6
:1014200040F6040081510021206802F023FF4FF0B4
:10143000000A0CE0FF2106F5106000EB4A10816005
:1014400006F5306000EB4A1081600AF1010A60681D
:101450005045EFD84FF0FF3140F618008151001D84
:10146000805940F0011140F61C008151206B70B191
:10147000D6F8840840F00B01C6F8841840F6440002
:10148000805940F00B0140F6440081510EE040F6D7
:101490001400805940F00B0140F614008151001FE8
:1014A000805940F00B014FF401608151D6F80008DB
:1014B00020F4FE60C6F80008217C04F56172206803
:1014C00002F0C4FC2068406900F480502168486143
:1014D000206802F041FF00F40050B0F5005F2BD10E
:1014E000206802F0B9FB2068C06820F470502168C1
:1014F000C860206802F0D6FE58B90021E1604FF4C0
:10150000007161612068C06840F410502168C860B3
:1015100009E00321E160402161612068C06840F476
:10152000A0502168C860204600F0BFF820684069DC
:1015300000F4005021684861206802F00DFF00F0BF
:101540001000102843D12068806920F01000216825
:101550008861376A07F00F00C0EBC00104F5EE7038
:1015600000EB8109C7F34340022819D147F6F07018
:10157000384030B3C7F30A123046D9F80C1002F0E5
:10158000F1FEC7F30A11D9F80C000844C9F80C00A1
:10159000C7F30A11D9F818000844C9F8180010E078
:1015A000C7F3434006280CD1082204F56171304688
:1015B00002F0D8FEC7F30A11D9F818000844C9F898
:1015C00018002068806940F0100021688861206858
:1015D00002F0C2FE00F00800082808D1204600F002
:1015E0008CF82068406900F0080021684861206894
:1015F00002F0B2FE00F48010B0F5801F09D1E9B20C
:10160000204600F040F82068406900F4801021680E
:101610004861206802F0A0FE00F40010B0F5001F41
:1016200009D1E9B2204600F037F82068406900F49B
:10163000001021684861206802F08EFE00F08040B2
:10164000B0F1804F08D12046FFF710FC20684069B8
:1016500000F0804021684861206802F07DFE00F0C3
:10166000040004280DD12068476807F0040004280E
:1016700002D12046FFF721FC2068406838432168EA
:10168000486000BF65E570B504460D462946D4F8AC
:10169000B40301F0D1FF70BD70B504460D46294674
:1016A000D4F8B40301F0CBFF70BD70B50446D4F894
:1016B000B4530126E06810B1022804D101E00026ED
:1016C00003E0012601E0012600BF00BF3146D4F847
:1016D000B40302F011F840212963C5F82011082154
:1016E0002964D4F8B40301F0CDFF70BD10B50446F1
:1016F000D4F8B40301F0E8FF10BD10B50446D4F8E7
:10170000B40301F0E8FF10BD70B504460D4600BFFC
:1017100094F88003012801D1022070BD012084F8D3
:10172000800300BF2946206802F030FE00BF002081
:1017300084F8800300BF00BFEFE710B5044604F54E
:101740006171D4F8B40301F0E5FF10BD10B5044693
:10175000D4F8B40302F01FF82068D0F8000E40F06F
:1017600001002168C1F8000E206A28B10348006812
:1017700040F006000149086010BD000010ED00E0D7
:1017800070B504460E460025A748006800F00F001B
:10179000B0426FD2A4490E700846006800F00F00F6
:1017A000B04201D0012070BD207800F00200022874
:1017B00007D19E48006820F0F000A16808439B49CB
:1017C0000860207800F0010000283ED06068012801
:1017D00007D1964808380068C0F34040B8B90120E6
:1017E000E1E76068022802D06068032807D18F48CB
:1017F00008380068C0F3406048B90120D3E78B483F
:1018000008380068C0F3400008B90120CBE78748DA
:10181000006820F003006168084384490860FFF70E
:1018200083FA05466068012810D108E0FFF77CFACA
:10183000401B41F28831884201D90320B3E77B483D
:10184000006800F00C000428F0D1CDE060680228A8
:1018500011D108E0FFF768FA401B41F28831884255
:1018600001D903209FE77148006800F00C000828A8
:10187000F0D1B9E024E06068032810D108E0FFF758
:1018800053FA401B41F28831884201D903208AE78C
:101890006648006800F00C000328F0D1A4E008E0DE
:1018A000FFF742FA401B41F28831884201D90320F8
:1018B00079E75E48006800F00C000028F0D193E062
:1018C000207800F00200022807D15848006820F074
:1018D000F000A168084355490860207800F0010035
:1018E000002877D06068012807D150480838006880
:1018F000C0F34040B8B9012055E76068022802D023
:101900006068032807D1494808380068C0F3406080
:1019100048B9012047E7454808380068C0F340004F
:1019200008B901203FE74148006820F003006168E2
:1019300008433E490860FFF7F7F90546606801284B
:1019400010D108E0FFF7F0F9401B41F288318842DE
:1019500001D9032027E73548006800F00C0004286F
:10196000F0D137E06068022810D108E0FFF7DCF919
:10197000401B41F28831884201D9032013E72B48EC
:10198000006800F00C000828F0D123E0606803280C
:1019900010D108E0FFF7C8F9401B41F288318842B6
:1019A00001D90320FFE62148006800F00C0003285D
:1019B000F0D10FE008E0FFF7B7F9401B41F28831A2
:1019C000884201D90320EEE61848006800F00C00B8
:1019D0000028F0D114490E700846006800F00F008E
:1019E000B04201D00120DEE6207800F00400042897
:1019F00007D10E48006820F4E050E16808430B4925
:101A00000860207800F00800082808D1074800681E
:101A100020F46040216940EAC100044908600F20B9
:101A2000FFF7AEF90020BEE6003C02400838024055
:101A300010B500F045F80949096801F0F001F022FD
:101A400092FAA2F2B2FA82F2D140054A515CC84041
:101A5000044908600846006810BD000008380240CC
:101A6000906800080C00002010B5FFF7E1FF07495F
:101A7000096801F4E0514FF4E05292FAA2F2B2FA8E
:101A800082F2D140024A515CC84010BD0838024081
:101A90009068000810B5FFF7CBFF0749096801F40B
:101AA00060414FF4604292FAA2F2B2FA82F2D1405F
:101AB000024A515CC84010BD0838024090680008D6
:101AC00070B50021002200230020274C246804F078
:101AD0000C0424B1042C04D0082C41D103E0234889
:101AE00040E023483EE0204C241F246804F03F01DE
:101AF0001D4C241F246804F4800484B11C4CB4FBE6
:101B0000F1F5194C241F246847F6C076344096FA44
:101B1000A6F6B6FA86F6F44005FB04F20FE0134C85
:101B2000B4FBF1F5104C241F246847F6C07634400E
:101B300096FAA6F6B6FA86F6F44005FB04F20A4CCD
:101B4000241F246804F440344FF4403595FAA5F579
:101B5000B5FA85F5EC40641C6300B2FBF3F001E0DC
:101B6000024800BF00BF70BD083802400024F400E6
:101B700000127A0038B504460025207800F00100F4
:101B8000002866D0F748006800F00C0004280DD04B
:101B9000F448006800F00C00082813D1F148001F39
:101BA000006800F48000B0F5800F0BD1ED480838D4
:101BB0000068C0F3404000284BD06068002848D13E
:101BC000012038BD0020E749891F0870FFF7ACF8F5
:101BD000054608E0FFF7A8F8401B41F2883188422B
:101BE00001D90320EDE7DF4808380068C0F3404022
:101BF0000028EFD12079DB49891F08706068A0B107
:101C0000FFF792F8054608E0FFF78EF8401B41F217
:101C10008831884201D90320D3E7D24808380068C8
:101C2000C0F340400028EFD013E0FFF77DF80546F1
:101C300008E0FFF779F8401B41F28831884201D96A
:101C40000320BEE7C74808380068C0F340400028BA
:101C5000EFD1207800F00200022869D1C148006865
:101C600000F00C0058B1BF48006800F00C000828D4
:101C700021D1BC48001F006800F48000D8B9B948E1
:101C800008380068C0F3400020B1E068012801D0A6
:101C9000012096E7B3480838006820F0F800F822E1
:101CA00092FAA2F2B2FA82F2216991400843AD4958
:101CB000083908603CE0E06828B30120AA490860C0
:101CC000FFF732F8054606E0FFF72EF8401B6428C0
:101CD00001D9032075E7A34808380068C0F3400025
:101CE0000028F1D09F480838006820F0F800F8225A
:101CF00092FAA2F2B2FA82F221699140084399491C
:101D00000839086014E0002097490860FFF70CF8D4
:101D1000054606E0FFF708F8401B642801D90320B8
:101D20004FE7904808380068C0F340000028F1D120
:101D3000207800F0080008282CD16069A8B10120A3
:101D40008A490860FEF7F0FF054606E0FEF7ECFF63
:101D5000401B642801D9032033E782486C300068B7
:101D6000C0F340000028F1D014E000207F49086053
:101D7000FEF7DAFF054606E0FEF7D6FF401B6428B3
:101D800001D903201DE777486C300068C0F340009C
:101D90000028F1D1207800F0040004286FD100BFA2
:101DA000002000906F483830006840F080506D4946
:101DB000383108600846006800F08050009000BF8D
:101DC00000BF6B48006840F4807069490860FEF706
:101DD000ABFF054606E0FEF7A7FF401B642801D9CC
:101DE0000320EEE66248006800F480700028F2D01C
:101DF00000205C4968310870FEF796FF054608E050
:101E0000FEF792FF401B41F28831884201D903203E
:101E1000D7E6544868300068C0F340000028EFD18E
:101E2000207A504968310870A068A0B1FEF77CFFA5
:101E3000054608E0FEF778FF401B41F288318842F2
:101E400001D90320BDE6474868300068C0F3400070
:101E50000028EFD013E0FEF767FF054608E0FEF725
:101E600063FF401B41F28831884201D90320A8E674
:101E70003C4868300068C0F340000028EFD1A069FA
:101E8000F0B33848006800F00C00082872D0A06950
:101E9000022850D1002034490866FEF745FF054668
:101EA00006E0FEF741FF401B642801D9032088E6C5
:101EB0002C4808380068C0F340600028F1D1D4E90C
:101EC0000701084347F6C07292FAA2F2B2FA82F210
:101ED000616A914008430122A16AC2EB51014FF4AB
:101EE000403292FAA2F2B2FA82F2914008434FF0E5
:101EF000706292FAA2F2B2FA82F2E16A914000E0D4
:101F00003AE008431749091F08600120164908668E
:101F1000FEF70AFF054606E0FEF706FF401B6428B1
:101F200001D903204DE60F4808380068C0F340602F
:101F30000028F1D020E000200B490866FEF7F4FEEF
:101F4000054606E0FEF7F0FE401B642801D9032099
:101F500037E6044808380068C0F340600028F1D133
:101F60000AE007E00838024000004742800E47427E
:101F700000700040012024E6002022E6042808D159
:101F80004FF0E021096941F004014FF0E0221161B6
:101F900007E04FF0E021096921F004014FF0E02251
:101FA0001161704770B504462546681EB0F1807F08
:101FB00001D301200FE0681E4FF0E02148610F219E
:101FC0004FF0FF3000F008FB00204FF0E021886167
:101FD00007200861002070BD10B5044620684069E4
:101FE00020F08000216848612068406920F04000AE
:101FF00021684861206B10B1206BFEF7E9FB606B34
:1020000010B1606BFEF7E4FB202084F8390084F8FF
:102010003A00002010BD704770B504460025002628
:1020200020680068C0F340152068C06800F02006F2
:102030001DB116B1204600F02CFE70BD10B504464F
:102040000CB9012010BDA06900B100E000BF94F8F8
:10205000390028B9002084F83800204600F027F81D
:10206000242084F839002068C06820F400502168DA
:10207000C860204600F040FE2068006920F49040CF
:10208000216808612068406920F02A0021684861C1
:102090002068C06840F400502168C8600020E063F8
:1020A000202084F8390084F83A000020CAE77047FD
:1020B000F7B50446154694F83A00202834D1019823
:1020C00000B10DB90120FEBD00BF94F83800012811
:1020D00001D10220F7E7012084F8380000BF019801
:1020E000A062A5850020E063222084F83A000F4812
:1020F000616BC8630E48616B08640E48616B88644D
:1021000001AE32682368191D2B46606BFEF7DEFCBA
:102110002068406940F040002168486100BF00200D
:1021200084F8380000BFCEE70220CCE7132C00086B
:10213000412C0008ED2B000810B5034693F83A0037
:10214000202823D101B10AB9012010BD00BF93F8A6
:102150003800012801D10220F7E7012083F8380078
:1021600000BF99629A85DA850020D863222083F81F
:102170003A0000BF002083F8380000BF1868C0682C
:1021800040F020001C68E0600020DEE70220DCE771
:1021900010B504460949206888420ED108480178E4
:1021A000084802880088401C064B18800648815465
:1021B0000349087804F0C2FA00BF10BD0044004093
:1021C000B2070020A2000020A803002070472DE9DC
:1021D000F04104460D461646984694F839002028EA
:1021E00055D105B116B90120BDE8F08100BF94F8C2
:1021F0003800012801D10220F6E7012084F83800D8
:1022000000BF0020E063212084F83900A684E68422
:1022100028E0E08C401EE084A068B0F5805F14D117
:10222000434600228021204600F01AFF08B1032017
:10223000DAE72F463888C0F3080021684860206933
:1022400008B9AD1C0EE06D1C0CE043460022802155
:10225000204600F005FF08B10320C5E715F8010B83
:1022600021684860E08C0028D3D1434600224021F9
:10227000204600F0F5FE08B10320B5E7202084F8E1
:10228000390000BF002084F8380000BFACE702200E
:10229000AAE70000F7B50446154694F8390020284F
:1022A00039D1019800B10DB90120FEBD00BF94F8ED
:1022B0003800012801D10220F7E7012084F8380016
:1022C00000BF01982062A584E5840020E0632120FE
:1022D00084F839001148216BC8631148216B0864E8
:1022E0001048216B886401AE23681A1D31682B46A3
:1022F000206BFEF7EBFB6FF0400021680860206860
:10230000406940F080002168486100BF002084F8E7
:10231000380000BFC9E70220C7E700004F2C0008C3
:10232000852C0008ED2B0008016B0968096821F075
:102330000101026B126811600349097821F0020162
:10234000014A117070470000B20B00207047000076
:1023500010B592B0044600BF002000907648006897
:1023600040F08050744908600846006800F08050D2
:10237000009000BF00BF00BF002000906F480068C1
:1023800020F4404040F400406C4908600846006872
:1023900000F44040009000BF00BF01200D900020DD
:1023A0000E9003210DA8FFF7EBF908B1FEF7B8F97D
:1023B0000220019001200490102005900220079037
:1023C00000210891502C43D008DC102C0DD0182C83
:1023D00018D0302C23D0482C6ED12CE0602C44D067
:1023E0006C2C4FD0902C67D159E0102054490860D4
:1023F0006020544908600620534908600220534970
:10240000086066E008204E49086060204D49086079
:1024100008204D49086004204C49086059E0082014
:1024200047490860C02047490860082046490860BD
:10243000464908604DE00820414908609020414924
:10244000086004204049086006204049086040E0D8
:1024500008203B490860F0203A49086006203A49C4
:1024600008600A203949086033E0082034490860D0
:10247000C0203449086004203349086008203349EB
:10248000086026E008202E490860D8202D49086001
:1024900004202D49086009202C49086019E0082013
:1024A00027490860902027490860022026490860D3
:1024B0000620264908600CE0082021490860902089
:1024C0002049086004202049086006201F49086050
:1024D00000BF00BF1A48016809911A4801680A91B3
:1024E000194801680B91194801680C9101A8FFF780
:1024F00041FB08B1FEF714F90F200D9002200E9059
:1025000000200F904FF48050109000201190032174
:102510000DA8FFF735F908B1FEF702F90120019087
:1025200000200290079001A8FFF724FB08B1FEF7F6
:10253000F7F812B010BD00004038024000700040B3
:102540003000002034000020380000203C00002033
:1025500010B51648164908604FF41660096888855A
:102560002A20124908700020FEF7F6F81149087079
:1025700008460078032801DD012008700120FEF7DD
:10258000EBF80D49087008460078142801DD012099
:1025900008700220FEF7E0F8084908700846007845
:1025A000142801DD0120087010BD0000C0010020CA
:1025B00014000020C9000020E2000020BF0000201D
:1025C00000BFFEE77047000002480068C0F3022029
:1025D000704700000CED00E010B5002807DA0A078C
:1025E000140E054A00F00F031B1FD45403E00A0722
:1025F000130E024A135410BD18ED00E000E400E091
:1026000010B50248FEF790FD10BD0000C40C00207C
:102610002DE9F84F07460E46D7F800800025AA4658
:10262000C6EBC60107F1380000EB8104D4E90501CF
:10263000451AA068A84200D2A568E81CC11700EBA3
:1026400091714FEAA1091AE0D4E90501451AA06881
:10265000A84200D2A568E81CC11700EB91714FEAAF
:10266000A109387CABB2F2B200904046E16801F0BB
:102670009FFEE0682844E060A0692844A06108F556
:10268000106000EB4610806980B2484506D9D4E955
:102690000510884202D260690028D5D1002D0CDCDB
:1026A000012000FA06FA40F6340050F8080020EA4B
:1026B0000A0040F6340141F808000020BDE8F88F18
:1026C00070B5044600F032FA00F004FA012000F080
:1026D00023FA042000F036FA022000F041FA0F48F5
:1026E000416920468847E61D304600F007FA00BFE2
:1026F0004FF4FA7003F07DF9094800880C2809DBD3
:102700000020074908800748457A4FF40071FDF71B
:10271000EAFD00E0ECE7284670BD0000040200205E
:10272000A2000020A803002070B500F0FFF900F01F
:10273000D1F9012000F0F0F9032000F003FA0120A4
:1027400000F00EFA0525284600F0D8F900BF4FF436
:10275000FA7003F04EF9084800880C2809DB0020C5
:10276000054908800548447A4FF40071FDF7BBFD28
:1027700000E0ECE7204670BDA2000020A803002086
:1027800010B54FF0FF3400BF00F0D0F900F0A2F90F
:10279000254841690120884723484169002088472E
:1027A00021484169002088474FF4FA7003F021F96D
:1027B0001E4800880C2833DB00201C4908801C4878
:1027C000807800061A49C97800EB01401849097958
:1027D00000EB01201649497944184FF40071144860
:1027E000FDF781FD012220211248FEF797FA6420AF
:1027F00003F0FFF8002220210E48FEF78FFA642034
:1028000003F0F7F8012220210A48FEF787FA642036
:1028100003F0EFF8002220210648FEF77FFA00E0DF
:10282000B2E7204610BD000004020020A2000020F4
:10283000A8030020000002402DE9F04707460C469F
:1028400015461E4600F072F900F044F9012000F030
:1028500063F9082000F076F91B2000F081F9244884
:102860004169384688472012214A51698847E0B2B9
:102870001F4A5169884728121D4A51698847E8B2A2
:102880001B4A5169884707F1240000EB2420E1B27C
:10289000084400EB2520E9B200EB0109484600F0AE
:1028A0002DF900BF4FF4FA7003F0A3F81148008827
:1028B000102818DB00200F4908800F4890F8098085
:1028C000C07A0D49897A00EB012030800A48407BAC
:1028D0000949097B00EB012070804FF40071064824
:1028E000FDF701FD00E0DDE74046BDE8F0870000B0
:1028F00004020020A2000020A80300202DE9F041DE
:10290000044600F013F900F0E5F8012000F004F9A6
:10291000032000F017F90F2000F022F913263046AB
:1029200000F0ECF800BF4FF4FA7003F062F82748AB
:1029300000881C2846DB0020244908802448457A6A
:10294000C07B2349897B00EB012020802048407C0C
:10295000A0701F48807C00061D49C97C00EB014027
:102960001B49097D00EB01201949497D084460603D
:102970001748C07D20721648407E6072A5B9218834
:1029800014A001F061FDA17818A001F05DFD1BA06D
:10299000616801F059FD607A4FF4165210FB02F1A4
:1029A00019A001F051FD07E02846FDF781FD07461B
:1029B000394618A001F048FD4FF400710448FDF7B6
:1029C00092FC00E0AFE72846BDE8F081A2000020BD
:1029D000A80300200D0AC4A3BFE9D7EEB4F3D6B80C
:1029E000CEC6C8DDC1BF3D25640000000D0AB6D4C7
:1029F000B1C8B5C8BCB63D25640000000D0AB5D805
:102A0000D6B73D25780000000D0AB2A8CCD8C2CABE
:102A10003D2564000D0A2573000000002DE9F041FA
:102A2000054600F083F800F055F8012000F074F836
:102A3000032000F087F81D2000F092F82126304690
:102A400000F05CF800BF4FF4FA7002F0D2FF1648B5
:102A500000880E2823DB0020134908801348447A9D
:102A6000C07A1249897A00EB012028804CB90F48BE
:102A7000C07A0E4A927A00EB02210DA001F0E4FC2C
:102A800007E02046FDF714FD074639460EA001F089
:102A9000DBFC4FF400710548FDF725FC00E0D2E7B0
:102AA0002046BDE8F0810000A2000020A80300201D
:102AB0000D0AD3D0D0A7D6B8CEC6B8F6CAFD3D25EC
:102AC00064B8F60D0A0000000D0A2573000000002E
:102AD0007047000010B508484169FF208847064844
:102AE0004169FF20884704484169FF208847024820
:102AF0004169FF20884710BD0402002010B504463C
:102B00002012044A51698847E0B2024A5169884755
:102B100010BD00000402002010B5044602484169BF
:102B20002046884710BD00000402002010B504486C
:102B30004169EF208847024841690120884710BD5C
:102B40000402002010B5044604484169C4F307207C
:102B50008847E0B2014A5169884710BD040200204D
:102B600010B50446024841692046884710BD000060
:102B70000402002010B502F09FFAFEF7DBF803F024
:102B80009DF802F0A9FA10BD1448006840F47000E6
:102B9000124908601248006840F0010010490860BE
:102BA00000200F49083108600D4800680D490840B1
:102BB0000B4908600C48091D0860081F006820F4D4
:102BC0008020091F0860002005490C3108604FF083
:102BD00000600249803908607047000088ED00E01D
:102BE00000380240FFFFF6FE1030002470B50546A5
:102BF000AC6B0020E085E084202084F8390084F864
:102C00003A00E06B40F01000E0632046FFF703FA63
:102C100070BD70B50546AC6B2868006800F4807024
:102C200050B90020E0852068406920F0400021680C
:102C30004861202084F83A002046FFF7A9FA70BDC9
:102C400070B50446A56B2846FFF7C0FA70BD70B595
:102C50000546AC6B2868006800F4807070B90020ED
:102C6000E0842068406920F0800021684861206885
:102C7000C06840F040002168C86002E02046FFF7CD
:102C800053FB70BD70B50446A56B2846FFF75EFB8D
:102C900070BD10B5044694F83A00222826D1206968
:102CA00038B920684068C1B2A26A501CA062117095
:102CB00007E02068406800F07F01A26A501CA06213
:102CC0001170E08D401E80B2E08568B92068C06850
:102CD00020F020002168C860202084F83A002046B7
:102CE000FFF756FA002010BD0020FCE74FF4164015
:102CF00003F072FB0220F6E72DE9F04104460025BF
:102D00002068056925F44055E068054320680561A1
:102D10002068C56849F20C6085432169A0680843B2
:102D200061690843E169084305432068C56020687C
:102D3000456925F44075A069054320684561E0694F
:102D4000B0F5004F7ED1C4492068884203D0C34902
:102D5000206888425DD1FEF79DFE00EBC00101EBCB
:102D6000001061684900B0FBF1F06421B0FBF1F0A4
:102D70000601FEF78FFE00EBC00101EB0010616859
:102D80004900B0FBF1F7FEF785FE00EBC00101EB57
:102D9000001061684900B0FBF1F06421B0FBF1F074
:102DA00000EBC00101EB0010A7EB8000322101EB2A
:102DB000C0006421B0FBF1F000F0F80006EB400623
:102DC000FEF768FE00EBC00101EB001061684900EE
:102DD000B0FBF1F7FEF75EFE00EBC00101EB001067
:102DE00061684900B0FBF1F06421B0FBF1F000EB49
:102DF000C00101EB0010A7EB8000322101EBC00005
:102E00006421B0FBF1F000F00700304421688860D5
:102E100020E1FEF729FE00EBC00101EB0010616824
:102E20004900B0FBF1F06421B0FBF1F00601FEF7C0
:102E30001BFE00EBC00101EB001061684900B0FB14
:102E4000F1F700E045E0FEF70FFE00EBC00101EBFB
:102E5000001061684900B0FBF1F06421B0FBF1F0B3
:102E600000EBC00101EB0010A7EB8000322101EB69
:102E7000C0006421B0FBF1F000F0F80006EB400662
:102E8000FEF7F2FD00EBC00101EB001061684900A4
:102E9000B0FBF1F7FEF7E8FD00EBC00101EB00101D
:102EA00061684900B0FBF1F06421B0FBF1F000EB88
:102EB000C00101EB0010A7EB8000322101EBC00044
:102EC0006421B0FBF1F000F0070030442168886015
:102ED000C0E061492068884203D060492068884288
:102EE0005CD1FEF7D7FD00EBC00101EB001061687B
:102EF0008900B0FBF1F6FEF7CDFD00EBC00101EB60
:102F0000001061688900B0FBF1F06421B0FBF1F0C2
:102F100000EBC00101EB0010A6EB8000322101EBB9
:102F200000106421B0FBF1F000F0F006FEF7B2FDF6
:102F300000EBC00101EB001061688900B0FBF1F00B
:102F40006421B0FBF1F006EB0016FEF7A3FD00EBE9
:102F5000C00101EB001061688900B0FBF1F7FEF7DA
:102F600099FD00EBC00101EB001061688900B0FB26
:102F7000F1F06421B0FBF1F000EBC00101EB0010B7
:102F8000A7EB8000322101EB00106421B0FBF1F0CF
:102F900000F00F003044216888605BE0FEF764FDBC
:102FA00000EBC00101EB001061688900B0FBF1F695
:102FB000FEF75AFD00EBC00101EB001061688900CB
:102FC000B0FBF1F06421B0FBF1F000EBC00101EBCC
:102FD0000010A6EB8000322101EB00106421B0FB51
:102FE000F1F000F0F006FEF73FFD00EBC00101EB51
:102FF000001061688900B0FBF1F06421B0FBF1F0D2
:1030000006EB0016FEF730FD00EBC00101EB0010EF
:1030100061688900B0FBF1F7FEF726FD00EBC00107
:1030200001EB001061688900B0FBF1F06421B0FB96
:10303000F1F000EBC00101EB0010A7EB80003221A2
:1030400001EB00106421B0FBF1F000F00F00304400
:1030500021688860BDE8F081001001400014014043
:103060002DE9F04104460E4617461D464FF0000874
:10307000FDF75AFE804677BB2FE0681C60B32DB188
:10308000FDF752FEA0EB0800A84226D92068C068D0
:1030900020F080002168C8602068C06820F020000F
:1030A0002168C8602068C06820F480702168C8600A
:1030B0002068406920F0010021684861202084F8E0
:1030C000390084F83A0000BF002084F8380000BFBF
:1030D0000320BDE8F0810BE0FFE720680068304086
:1030E000B04201D1012000E000200028C5D037E027
:1030F0002CE0681C50B32DB1FDF716FEA0EB0800C4
:10310000A84223D92068C06820F080002168C860E8
:103110002068C06820F020002168C8602068C0686E
:1031200020F480702168C8602068406920F00100A8
:1031300021684861202084F8390084F83A0000BFF3
:10314000002084F8380000BF0320C2E72068006830
:103150003040B04201D1012000E000200028C8D159
:103160000020B6E710B572B6034801F041F90248F5
:10317000FEF752FF62B610BD3802002010B50448B9
:10318000FEF74AFF012203490148FEF7D5FF10BDB3
:1031900078020020B207002070B504460D46D4F82E
:1031A00014022946426820469047002070BD70B541
:1031B00004460D4694F8FC01022802D0032811D1E0
:1031C00000E000BF688801280BD10020C4F8040289
:1031D000D4F814022946826820469047204600F021
:1031E0004AF804E02946204600F01BF800BF00BF63
:1031F00070BD70B506460C4615462B46224600218A
:10320000304600F02FFA002070BD70B506460C461F
:1032100015462B4622460021304600F0C6FA002013
:1032200070BD70B504460D468021204600F0A9FA15
:103230000021204600F0A5FA70BD10B50446052017
:10324000C4F8F40100231A461946204600F00AFA91
:10325000002010BD70B504460E4615460220C4F885
:10326000F401A561E5612B4632460021204600F0BD
:103270009CFA002070BD10B504460420C4F8F40187
:1032800000231A461946204600F08FFA002010BD90
:1032900070B504460D46E888012804D0294620462A
:1032A000FFF7BFFF1BE094F8FC01022802D00328BF
:1032B0000FD108E00020A060012204F1080120469F
:1032C000FFF7C8FF0AE00122211D2046FFF7C2FFD9
:1032D00004E029462046FFF7A4FF00BF00BF70BDF1
:1032E000F8B504460E467088001208287FD2DFE841
:1032F00000F07E040C207E7E5F6D207CD4F81012DE
:103300000A6869469047054676E0207C40B9D4F8C3
:103310001402816A6846884705460221697007E001
:10332000D4F81402C16A68468847054602216970CC
:1033300062E0B078062834D2DFE800F0030B131BFC
:10334000232B207CD4F810124A6869469047054622
:103350002CE0207CD4F810128A6869469047054614
:1033600024E0207CD4F81012CA68694690470546CC
:103370001CE0207CD4F810120A6969469047054683
:1033800014E0207CD4F810124A696946904705463B
:103390000CE0207CD4F810128A69694690470546F3
:1033A00004E031462046FFF73CFFF8BD00BF23E0B4
:1033B000207C30B9D4F81402416B68468847054632
:1033C0001AE031462046FFF72CFFEEE7207C48B993
:1033D000D4F81402016B68468847054607216970D6
:1033E0000AE004E031462046FFF71BFFDDE73146E7
:1033F0002046FFF716FFD8E700BFBDF8000088B1F0
:10340000F08878B1F088BDF80010884202DDBDF880
:10341000000000E0F0880090BDF80020294620461A
:10342000FFF718FF00BFC0E770B504460D4694F8DB
:10343000FC01022802D0032811D100E000BF0120C6
:10344000E060D4F8040218B1E06840F00200E060E7
:10345000022204F10C012046FFF7FCFE04E029469D
:103460002046FFF7DEFE00BF00BF70BD70B504460A
:103470000D462946D4F82002FDF726FD002070BD38
:103480002DE9F04104460E461746002E54D104F1B2
:103490001405D4F8F401022843D1D5E90201884289
:1034A00010D9D5E90201401AA860288982B23946AC
:1034B0002046FFF7AAFE00231A461946204600F0D0
:1034C000D1F82EE0E9686868B0FBF1F201FB120068
:1034D000B8B9E9686868884213D36868D4F8F81105
:1034E00088420ED2002211462046FFF78EFE0020B1
:1034F000C4F8F80100231A461946204600F0B2F835
:103500000FE0D4F81402C06840B194F8FC0103281D
:1035100004D1D4F81402C168204688472046FFF73A
:103520008CFE94F80002012814D1204600F068F9BE
:10353000002084F800020DE0D4F81402406948B17C
:1035400094F8FC01032805D1D4F8140231464269ED
:10355000204690470020BDE8F0812DE9F041054666
:103560000E4617465EBB05F58274D5F8F4010328B4
:1035700033D1D4E90201884210D9D4E90201401ABA
:10358000A060D4E90201884201D2A06800E0E068AE
:1035900082B239462846FFF72CFE1EE0D5F8140209
:1035A000006940B195F8FC01032804D1D5F8140254
:1035B0000169284688472846FFF75DFE0DE0D5F8EB
:1035C0001402806948B195F8FC01032805D1D5F8AB
:1035D000140231468269284690470020BDE8F081F8
:1035E00001460020704710B50446012084F8FC0114
:1035F0002179D4F81402426820469047002010BD7B
:1036000010B50246D2F8203201F08000802809D19E
:1036100001F07F00C0EBC00403F1380000EB840030
:10362000807810BD01F07F00C0EBC00403F5EE70A0
:1036300000EB84008078F4E70246002070470246E1
:10364000002070472DE9F04104460F4615461E46FE
:103650002B4632463946D4F82002FDF769FC00209B
:10366000BDE8F0812DE9F04104460D4616461F469F
:103670003B4632462946D4F82002FDF79FFC002045
:10368000BDE8F08110B504464023002211462046D3
:10369000FFF7D8FF40214FF48870015140230022EA
:1036A00080212046FFF7CEFF40212162012084F8CF
:1036B000FC01D4F8180228B12179D4F81402426828
:1036C00020469047002010BD014691F8FD0181F889
:1036D000FC010020704710B5044694F8FC01032853
:1036E00008D1D4F81402C06920B1D4F81402C16919
:1036F00020468847002010BD024611740020704704
:1037000070B504460D462946D4F82002FDF7FCFFAB
:10371000002070BD70B504460D46294604F50270C0
:1037200000F05AF80120C4F8F40140F20E20005BCA
:10373000C4F8F80194F8080200F01F0020B1012835
:1037400008D0022812D10BE004F50271204600F0E7
:1037500017F913E004F50271204600F0F5F90DE0C9
:1037600004F50271204600F044F907E094F80802DD
:1037700000F08001204600F004F800BF00BF0020E8
:1037800070BD70B504460D462946D4F82002FDF7F9
:1037900051FC002070BD014691F8FC0181F8FD014B
:1037A000042081F8FC01002070472DE9F041044617
:1037B0000D4617461E4605F07F0104F1140000EB8C
:1037C0000110466033463A462946D4F82002FDF7F8
:1037D0006EFC0020BDE8F0810A7802704A784270E1
:1037E0008B78CA7803EB022242800B794A7903EB8B
:1037F000022282808B79CA7903EB0222C280704751
:1038000001460020704770B504460D46A888F8B9F7
:10381000E888E8B9A87800F07F0694F8FC0103284E
:1038200004D129462046FFF7FCFC15E084F8FE6130
:1038300031462046FFF764FF2046FFF71CFD1EB10E
:10384000022084F8FC0107E0012084F8FC0103E079
:1038500029462046FFF7E5FC70BD70B504460D46CD
:103860000226D4F8140238B1D4F8140229460268AA
:103870002046904700B90026304670BD70B504461A
:103880000D46A8783449087008460078012804DD00
:1038900029462046FFF7C5FC5BE094F8FC010228AE
:1038A00002D003284FD11CE02B480078A8B12A4849
:1038B00000786060032084F8FC01274801782046E6
:1038C000FFF7CBFF022804D129462046FFF7A9FCC9
:1038D00070BD2046FFF7CFFC02E02046FFF7CBFC8F
:1038E00036E01D48007870B9022084F8FC011A48BF
:1038F00000786060184801782046FFF74DFC2046AC
:10390000FFF7B9FC1EE0144909786068884216D0B8
:1039100021792046FFF740FC0F48007860600E4890
:1039200001782046FFF799FF022804D12946204656
:10393000FFF777FCCCE72046FFF79DFC02E020462E
:10394000FFF799FC04E029462046FFF76AFC00BF18
:1039500000BF00BFBCE700001901002070B504469D
:103960000D46688801280AD1C4F80402D4F814026C
:1039700029468268204690472046FFF77CFC70BDB0
:1039800070B505460C46002660780A2829D2DFE883
:1039900000F01923281E280A0528140F214628465E
:1039A000FFF79EFC22E021462846FFF72CFF1DE092
:1039B00021462846FFF762FF18E021462846FFF718
:1039C00067FC13E021462846FFF72EFD0EE0214656
:1039D0002846FFF7C3FF09E021462846FFF7E7FB2B
:1039E00004E021462846FFF71CFC00BF00BF30461C
:1039F00070BD2DE9F04105460E464FF000083479C0
:103A0000307800F06000202808D1D5F81402314643
:103A10008268284690470020BDE8F0817078002831
:103A200055D001282AD003287AD195F8FC01022824
:103A300002D003281BD107E02CB1802C03D02146F3
:103A40002846FFF79EFE17E0708830B92CB1802C15
:103A500003D021462846FFF794FED5F814023146DC
:103A60008268284690472846FFF705FC04E0314667
:103A70002846FFF7D6FB00BF00BF62E095F8FC01C7
:103A8000022802D003281BD107E02CB1802C03D0E0
:103A900021462846FFF775FE17E0708878B904F0D4
:103AA0007F0048B121462846FFF7E0FCD5F8140214
:103AB00031468268284690472846FFF7DCFB04E041
:103AC00031462846FFF7ADFB00BF00BF39E095F84F
:103AD000FC01022802D003282BD107E004F07F006C
:103AE00018B121462846FFF74CFE27E004F080007D
:103AF000802806D104F07F0105F1140000EB0110CD
:103B000005E004F07F0105F5827000EB0110074627
:103B100021462846FFF774FD18B10120386002E005
:103B20000EE000203860022239462846FFF792FB5B
:103B300004E031462846FFF774FB00BF00BF00E0F9
:103B400000BF00BF404667E770B504460D4600263B
:103B500094F8FC01032814D1287901280CDCD4F84E
:103B600014022946826820469047E88840B93EB949
:103B70002046FFF780FB03E029462046FFF751FB74
:103B800004E029462046FFF74CFB00BF00BF0020A1
:103B900070BD000010B50246487801282BD140F6D0
:103BA0001C0080580C780123A3409BB2184340F6B8
:103BB0001C039850087802F5106303EB401000686E
:103BC00000F40040F0BB0889C0F30A00CB7840EA5B
:103BD00083400B7840EA835040F0805040F400402E
:103BE00002F5106404EB43131B6818430B7804EBD5
:103BF000431318602CE040F61C0080580C78012319
:103C0000A340144C04EA0343184340F61C039850A5
:103C1000087802F5306303EB4010006800F40040C0
:103C200080B90889C0F30A00CB7840EA834040F0AD
:103C3000805040F400400B7802F5306404EB4313ED
:103C40001B6800E004E018430B7804EB4313186092
:103C5000002010BD0000FFFF01464FF410604058E7
:103C6000C20AD2024FF41060425040F60800405899
:103C700000F00600042807D14FF41060405840F0CF
:103C800003024FF41060425040F60400405840F4E4
:103C9000807240F6040042500020704730B5034661
:103CA000487801287DD1486918BB087803F510646D
:103CB00004EB40100069644C20400C7803F510655B
:103CC00005EB4414206108782C4604EB4010006991
:103CD00040F40025087804EB40100561087804EBF7
:103CE00040100069C50CED04087804EB4010056134
:103CF00037E0087803F5106404EB40100069C50C48
:103D0000ED04087804EB40100561087804EB4010DE
:103D100004694D480440087803F5106505EB401030
:103D200004618C684869A04201D9886848610878B4
:103D300003F5106404EB4010006940F40025087896
:103D400004EB40100561087804EB401004694869F1
:103D5000C0F312000443087803F5106505EB40102A
:103D60000461012A07D1087803F5106404EB4010C0
:103D70000D6945610BE0486948B140F63400C05810
:103D80000D780124AC40204340F63404E05008781C
:103D900003F5106404EB4010006840F00445087817
:103DA00000E003E004EB401005604AE0087803F50A
:103DB000306404EB40100069C50CED04087804EB96
:103DC00040100561087804EB401000691E4C20404B
:103DD0000C7803F5306505EB44142061486908B19F
:103DE00088684861087803F5306404EB4010006986
:103DF00040F40025087804EB40100561087804EBD6
:103E0000401000698C68C4F3120420430C7803F559
:103E1000306505EB44142061012A06D1087803F5CA
:103E2000306404EB4010CD684561087803F53064D8
:103E300004EB4010006840F00445087804EB4010A3
:103E40000560002030BD0000FFFF07E010B503460D
:103E50000024C3F8104BD3F8100B40F40024C3F82F
:103E6000104BD3F8100B40F01804C3F8104BD3F8E4
:103E7000100B40F0C044C3F8104B012906D1C3F821
:103E8000142B4FF080244FF43060C450002010BD3C
:103E900010B50246487801281ED1087802F5106353
:103EA00003EB4010006820F40014087803EB401086
:103EB0000460C878032802D0C87802282AD108787C
:103EC00002F5106303EB4010006840F0805408785E
:103ED00003EB401004601DE0087802F5306303EB4B
:103EE0004010006820F40014087803EB40100460D0
:103EF000C878032802D0C87802280BD1087802F5C8
:103F0000306303EB4010006840F08054087803EB06
:103F100040100460002010BD10B50246487801280A
:103F20001FD1087802F5106303EB4010006800F021
:103F3000004048B9087803EB4010006820F0804446
:103F4000087803EB40100460087802F5106303EB77
:103F50004010006840F40014087803EB401004603F
:103F60001EE0087802F5306303EB4010006800F0B3
:103F7000004048B9087803EB4010006820F0804406
:103F8000087803EB40100460087802F5306303EB17
:103F90004010006840F40014087803EB40100460FF
:103FA000002010BDF8B505460C461646002760787F
:103FB00001287DD1606918BB207805F5106101EBFF
:103FC00040100069AA490840217805F5106202EB0B
:103FD000411108612078114601EB4010006940F45E
:103FE0000022207801EB40100261207801EB4010A4
:103FF0000069C20CD204207801EB401002614FE04E
:10400000207805F5106101EB40100069C20CD20464
:10401000207801EB40100261207801EB401000692C
:1040200093490840217805F5106202EB41110861BF
:10403000A16860690844401EB0FBF1F08C49C94397
:1040400001EAC040217802EB411109690843217857
:1040500002EB411108612078114601EB4010016923
:104060006069C0F312000143207802EB4010016147
:10407000E078012814D12078114601EB4010006946
:1040800020F0C042207801EB40100261207801EB63
:104090004010006940F00052207801EB40100261AE
:1040A000012E09D1207805F5106101EB401000E0E8
:1040B0004BE0226942610EE0E07801280BD0606994
:1040C00048B140F63400405922780121914008431C
:1040D00040F634014851E07801281ED140F608002E
:1040E000405900F4807060B9207805F5106101EB4B
:1040F0004010006840F00052207801EB4010026050
:104100000BE0207805F5106101EB4010006840F0ED
:104110008052207801EB40100260207805F5106194
:1041200001EB4010006840F00442207801EB4010A1
:104130000260E078012807D10096A08A83B2227835
:104140002846E16800F034F98FE0207805F5306109
:1041500001EB40100069C20CD204207801EB401042
:104160000261207801EB401001694148014020784C
:1041700005F5306202EB401001616069C0B920783A
:10418000114601EB40100069A168C1F31201084318
:10419000217802EB411108612078114601EB4010B3
:1041A000006940F40022207801EB4010026125E014
:1041B000A16860690844401EB0FBF1F087B2207826
:1041C00005F5306101EB401000692949C94301EA56
:1041D000C7410843217805F5306202EB41110861BF
:1041E0002078114601EB40100169A0687843C0F3C4
:1041F00012000843217802EB41110861012E06D11B
:10420000207805F5306101EB4010E2684261E0780A
:1042100001281ED140F60800405900F4807060B9B2
:10422000207805F5306101EB4010006840F0005245
:10423000207801EB401002600BE0207805F530613A
:1042400001EB4010006840F08052207801EB4010F4
:104250000260207805F5306101EB4010006840F005
:104260000442207801EB401002600020F8BD0000FD
:10427000FFFF07E010B502460023202040EA81102E
:10428000106100BF581C0346054CA04201D9032011
:1042900010BD106900F020002028F3D00020F7E7BF
:1042A000400D03000146002040F60802525802F07B
:1042B000060202B917E040F60802525802F0060260
:1042C000022A06D040F60802525802F00602062AD8
:1042D00001D1032007E040F60802525802F006021E
:1042E000042A00D1022070470146486900F001000D
:1042F0007047014640F618004258001D40580240E1
:1043000090B27047014640F618004258001D4058D0
:104310000240100C704730B502464FF40165AB58AF
:1043200040F63405AC5824FA01F505F0010543EADE
:10433000C51302F5106505EB4115AD6805EA0300EC
:1043400030BD024602F5306303EB4113986840F636
:1043500014039B58184070470146002048698A6939
:104360001040704770B503460024D01CC61700EB00
:104370009676B51000BF05E04FF48050C058086035
:10438000641C091DAC42F7D3084670BD0246D2F842
:10439000000820F4FE60C2F80008D2F800084FF4CC
:1043A000FE6303EA01131843C2F8000800207047B7
:1043B000F0B50446059E00270025A6B9D81C4FEA93
:1043C000E07C00EB9C7C4FEAAC0700BF09E0D1F831
:1043D00000C004F5805000EB0230C0F800C06D1C36
:1043E000091DBD42F3D30020F0BD00BFFEE7000071
:1043F00038B5044620680068C0F3001000B300BF61
:1044000000200090206800680090206840680090BC
:1044100000BF00BF2046FDF7DFFD606B0068456808
:10442000C5F58070074948800846007820F00100F3
:10443000401C08704FF48072091D2046FDF738FEBD
:1044400038BD0000B20B00200FB4054B10B503A916
:10445000044A029800F048F810BC5DF814FB000014
:10446000B149000804010020014609B90020704745
:10447000C8B220B1C8B20E4A105C401CF7E701F484
:104480007F4028B10A48C1F30722805C0930EEE77B
:1044900001F47F0028B10648C1F30742805C113067
:1044A000E5E7034800EB116000781930DFE7000012
:1044B000A868000802E008C8121F08C1002AFAD143
:1044C00070477047002001E001C1121F002AFBD194
:1044D0007047000003490868884201D001207047F6
:1044E0000020FCE7AC0100202DE9FF4F8DB09B467A
:1044F0000F460446002606E025280BD05A460F99A1
:104500009047641C761C20780028F5D111B0304605
:10451000BDE8F08F0025A8460122984900E0054338
:1045200014F8013F203B02FA03F00842F7D120784B
:104530002E2817D114F8010F45F004052A280ED0B3
:104540006FF02F022078A0F1300109290AD808EB7A
:10455000880102EB410100EB0108641CF2E757F807
:10456000048B641C20786C280DD004DC4C2812D0FD
:104570006A2811D104E074280DD07A280CD10AE001
:1045800045F4001507E0617845F48015814202D1B9
:10459000641C05F58015641C2278692A45D008DC66
:1045A000002AB3D0582A69D0632A10D0642A08D1CF
:1045B0003BE0702A67D0732A13D0752A5CD0782A22
:1045C0005CD010465A460F999047761CD3E017F8F6
:1045D000040B8DF8000000208DF80100E946012051
:1045E00003E057F8049B4FF0FF3069074FF00005D8
:1045F00001D40AE06D1C45450DDA8542FADB19F855
:1046000005100029F6D106E06D1C8542FCDB19F887
:1046100005100029F8D12E4404E019F8010B5A4680
:104620000F9990476D1EF8D2A5E00A200021CDE930
:104630000801C5F3025002280DD001CFC117031E97
:1046400071F100030DDA4FF0000CD0EB0C006CEBB5
:1046500001012D2308E0FF1D27F00707F7E80201FD
:10466000EDE72B0504D52B238DF8283001233BE003
:10467000EB0739D02023F7E70A2000E010200021C3
:10468000CDE9080107E01020002145F00405CDE93F
:1046900008014FF00808C5F3025002280FD001CFDF
:1046A00000214FF0000A2B071FD5702A0DD0DDE93D
:1046B00008C38CF0100C5CEA030C0CD015E0FF1D55
:1046C00027F00707F7E80201EBE740228DF82820E2
:1046D0004FF0010A0BE050EA010306D030238DF8B9
:1046E00028308DF8292002239A46582A04D024A283
:1046F0000DF120090B9209E026A2F9E7DDE9082374
:10470000FBF7FCFD0B9B9B5C09F8013D50EA0102A5
:10471000F4D1ADEB090020300890680701D44FF0C8
:1047200001080899884502DDA8EB010000E000209F
:104730008046002506E00AA85A46405D0F9990473A
:104740006D1C761C5545F6DB04E030205A460F9967
:104750009047761CB8F10001A8F10108F5DC05E0EE
:1047600019F8010B5A460F999047761C0899481E74
:1047700008900029F4DC641CC5E60000092801004B
:1047800030313233343536373839616263646566C7
:104790000000000030313233343536373839414289
:1047A00043444546000000002DE9FC5F04468B466B
:1047B00015461E46DDE90C9ADDE90E7804F1140079
:1047C0004060006000BF1C346560A660C4F80C90B7
:1047D000C4F810A02321D4E9030200F0E7FDD4E9D6
:1047E000033C63441A1F0F4BD4E9010100F03CFC69
:1047F0002060A77667760020E061C4F82080C4F8C6
:104800002480606120766065A0651C3C0090234692
:10481000054A2146019004F1440001F0D1FA00203C
:10482000BDE8FC9F015A00082F5C00082DE9F04705
:1048300004460E4617469846DDF8209084F8099005
:10484000607A20F001006072E66127620020A062B9
:10485000C4F82480002506E004F1140101EBC50032
:1048600000F0ADFC6D1C012DF6DBBDE8F08710B546
:104870000246002001460EE002F1140303EBC100E2
:10488000D0E900436360D0E90034236040600060F9
:1048900000BF481C01460129EEDB10BD014908603C
:1048A000704700001401002070B504460420FDF795
:1048B00065FB0C48047025464FF47A70454301208F
:1048C000094908804FF0E020006940F002004FF0F5
:1048D000E021086108464561006940F00100086177
:1048E00070BD0000180000201A00002070B50446BA
:1048F0000F480078A0B10F48007888B90E480088AA
:10490000844206DB0C48008894FBF0F5284600F052
:104910001DF80948008894FBF0F100FB114084B2B7
:104920004FF47A7104FB01F000F016F870BD00003E
:104930001C000020300100201A00002010B500F0FB
:1049400033FA10BD10B500F03FFA10BD10B50446A3
:10495000204601F04EF810BD2DE9F047074600262D
:104960004FF0E020D0F814901048007807FB00F8D2
:10497000FFF7E4FF4FF0E020856911E04FF0E02001
:104980008469AC420CD0AC4202D2281B064403E03E
:10499000A9EB0400284406442546464500D300E020
:1049A000ECE700BFFFF7CEFFBDE8F087180000205E
:1049B00013B50C464FF47A73012269460248FDF79D
:1049C00006FC00981CBD0000B80200201CB5FDF7D5
:1049D000BFFD1E200121CB020022CDE900100949B4
:1049E00009A000F0DEFF104908600846006820B109
:1049F0000846006801F0EAF802E00CA000F0C4FBF1
:104A000000201CBD9D6200087468726561645F4689
:104A1000696E6765727072696E745F446574656310
:104A2000745F656E747279000000002063726561C6
:104A30007465207468726561645F46696E6765724B
:104A40007072696E745F4465746563745F656E74DB
:104A50007279206661696C6564210D0A00000000AE
:104A600010B5044600F092F9FFF7B0FF10BD00004A
:104A700030B51A4C436824681919884215D04B8800
:104A80009BB9174B1B6899420FD0164B1B688B4282
:104A900001D1144B18604B684360104B1B68C31A5C
:104AA0000E4D4C682D682C44A3600C4C8368246820
:104AB0001A19824211D053887BB90A4B1B68834272
:104AC00001D1084B1A6043685360044B1B68D31A2A
:104AD000024D44682D682C44A36030BD3401002091
:104AE000380100203C01002038B5FDF71DFE0446CA
:104AF000002C34D11AA0FFF7A7FC0120FDF7E0FD40
:104B00000446002C1FD11AA0FFF79EFC1C48028807
:104B10006B4600210120FDF78FFE044654B919A011
:104B2000FFF792FCBDF80220BDF8001019A0FFF7B6
:104B30008BFC10E02046FBF7BBFC054629461CA079
:104B4000FFF782FC07E02046FBF7B2FC054629464A
:104B500017A0FFF779FC4FF4FA70FFF7C7FE38BDD6
:104B6000BBF1C8A1CDBCCFF1B3C9B9A6200D0A00D5
:104B7000C9FAB3C9CCD8D5F7B3C9B9A6200D0A0074
:104B8000B80C0020CBA2D6B8CEC6B3C9B9A60D0AC0
:104B900000000000C8B7D3D0B4CBC8CB2C49443AEE
:104BA00025642020C6A5C5E4B5C3B7D63A25640060
:104BB0000D0A25730D0A00002DE9F04F85B00D4652
:104BC0009C46DDE90F740E9B04F04008B8F1000F1D
:104BD00002D0DFF8688101E0DFF86481CDF8008061
:104BE00004F01008B8F1000F01D024F0010404F023
:104BF0000108B8F1000F02D04FF0300801E04FF08B
:104C00002008C246002604F00208B8F1000F11D0B7
:104C1000002A02DA2D2652420CE004F00408B8F112
:104C2000000F01D02B2605E004F00808B8F1000FB2
:104C300000D02026002142B94FF0300B8846491C95
:104C40000DF1040909F808B01DE01AE0E146B9F1D8
:104C50000A0F08D14FF00A0BB2FBFBFE0BFB1E281C
:104C6000B2FBFBF202E002F00F08120900BFDDF810
:104C7000009019F808B08846491C0DF1040909F89C
:104C800008B0002AE2D1B94200DD0F46DB1B04F078
:104C90001108B8F1000F10D116B1002B00DD5B1E1A
:104CA00006E0A84203D84FF0200880F80080401C9E
:104CB000B3F10008A3F10103F3DC26B1A84201D847
:104CC00006705B1E401C04F01008B8F1000F0AD1FA
:104CD00004E0A84201D880F800A0401CB3F100080D
:104CE000A3F10103F5DC06E0A84203D84FF0300839
:104CF00080F80080401CB8467F1E8845F4DC08E040
:104D0000A84205D80DF1040818F8018080F8008049
:104D1000401CB1F10008A1F10101F1DC06E0A8425C
:104D200003D84FF0200880F80080401CB3F1000841
:104D3000A3F10103F3DC05B0BDE8F08FB969000809
:104D4000A86900081CB514200221CB010022CDE97E
:104D50000010044904A000F024FE0446204600F0A0
:104D600035FF1CBD614A00086D61696E00000000DE
:104D700010B5044C02E020688047241D024884429C
:104D8000F9D310BDCC690008D069000810B5044CF7
:104D900002E020688047241D02488442F9D310BDF8
:104DA000D0690008D469000810B5FBF70FFA044673
:104DB00004480088401C00B2024908802046FBF7E6
:104DC00009FA10BD9C01002010B5FBF7FFF904465D
:104DD0000B480088401E00B2094908800846B0F917
:104DE0000000002807DC002008802046FBF7F2F9CD
:104DF00000F088FB02E02046FBF7ECF910BD000054
:104E00009C01002070B5054605B970BD16480068C4
:104E1000854203D315480068854200D3F5E7A5F124
:104E20000C044FF0FF31124800F028FC0020608095
:104E30004FF4F55020800F480068844201D20D489D
:104E40000460094960680968611A401A0A490968DA
:104E5000081A094908602046FFF70AFE044800F0D6
:104E6000F0FB00BFD1E70000340100203801002032
:104E7000741200203C0100204401002070B5FBF7B3
:104E800061FF4820FDF764FA254800684FF47A7204
:104E9000B0FBF2F1481EB0F1807F00D31BE0481E4A
:104EA0004FF0E022506150170F22002807DA130755
:104EB0001D0E1C4B00F00F04241F1D5503E01307AB
:104EC0001C0E194B1C5400BF00204FF0E0229061D3
:104ED0000720106100BF002114A000F08BFA1549D3
:104EE00008601548154908604820FFF7DDFCFBF70E
:104EF0003BFC4FF4165001F06FFA4FF4614001F0A3
:104F000091FB4FF4E13001F037FC01200C490870AF
:104F1000FFF72EFF0B490C4800F07AFC70BD000033
:104F20000C00002018ED00E000E400E06D757465F1
:104F300078000000FC000020C001002014000020C8
:104F40001C00002000800120D816002010B5044667
:104F5000FFF72AFFFFF738FF10BD000070B50446C9
:104F60001948006838B1204617490968884705463E
:104F700005B970BD00BF15A0E16900F005F917A0E3
:104F8000A16900F001F919A0616900F0FDF81BA00A
:104F9000216900F0F9F81DA0E16800F0F5F81FA004
:104FA000A16800F0F1F821A0616800F0EDF823A0FD
:104FB000216800F0E9F800F0E1FD0546294623A04C
:104FC00000F0E2F800BFFEE7280100207073723A9B
:104FD000203078253038780A000000002070633ACD
:104FE000203078253038780A00000000206C723AB2
:104FF000203078253038780A000000007231323ACB
:10500000203078253038780A000000007230333ABA
:10501000203078253038780A000000007230323AAB
:10502000203078253038780A000000007230313A9C
:10503000203078253038780A000000007230303A8D
:10504000203078253038780A0000000068617264EA
:10505000206661756C74206F6E207468726561647F
:105060003A2025730A000000F0B504460D461646A6
:10507000301D20F0070044380146002203E00D4FA8
:1050800041F82270521C112AF9D34D624FF0000CE6
:10509000C1F828C0C1F82CC0C1F830C0C1F834C074
:1050A0008B63CC634FF0807CC1F840C000270F6059
:1050B000F0BD0000EFBEADDE10B5FBF787F804468B
:1050C00004480078401C034908702046FBF782F82A
:1050D00010BD00003001002010B5FBF777F8044642
:1050E00004480078401E034908702046FBF772F818
:1050F00010BD00003001002070B504462068A0F10A
:105100001405284600F01EFD002070BD2DE9F04179
:1051100005460C469046204600F06EFDB8F1000FA3
:1051200003D0B8F1010F23D105E004F114012846A2
:1051300000F05DF81CE02E680FE0A6F1140794F86B
:10514000350097F83510884206DA04F1140107F1AA
:10515000140000F04CF802E03668AE42EDD100BF1A
:10516000AE4204D104F11401284600F040F800BF1B
:1051700000BF0020BDE8F081014601F1140040604D
:10518000006000BF002070470FB438B505A800903C
:105190007F210848009B049A00F0BEFE04467F2C45
:1051A00000D97F240348FFF7D1FE0020009038BCCF
:1051B0005DF814FBF411002040600060704740600F
:1051C000006070470268516002680A6001604860D0
:1051D00070470268516002680A6001604860704769
:1051E0000268516002680A60016048607047426866
:1051F000116042684A604160086070470146086873
:10520000884201D1012070470020FCE70146086870
:10521000884201D1012070470020FCE7D0E900213D
:105220005160D0E900121160406000607047D0E921
:1052300000215160D0E900121160406000607047A9
:105240002DE9F041054615B90020BDE8F081E81CC4
:1052500020F003054E480068854201D90020F4E79C
:105260000C2D00D20C254FF0FF314A4800F006FA11
:105270004948006849490968461A7EE0474800687D
:1052800084196088002874D106F10C006168081A3E
:10529000A8426ED306F10C006168091A05F11800E6
:1052A000814230D306F10C0000EB05083B48006852
:1052B00000EB08074FF4F5503880002078806068D4
:1052C0007860BE60C4F8048001206080304879684E
:1052D00000680C30814205D030497868096808447C
:1052E000C0F808802E48016805F10C0008442C49DC
:1052F00008602C4800680968884219D2284800686C
:105300002849086014E00120608024496068096829
:10531000611A401A22490968084421490860214855
:1053200000680968884203D21D4800681D4908606A
:105330004FF4F550208018480068844212D107E0ED
:105340001548006840681549096808441249086012
:1053500011480068408828B10F4800681249096860
:105360008842EDD10B4800F06CF904F10C006CE7B9
:10537000FFE70A4800683044466805480068401B5B
:10538000B0423FF67BAF034800F05BF900205CE7DA
:1053900040010020741200203C0100203401002054
:1053A000440100204801002038010020F0B50C46DF
:1053B0000546E6B2042A15D300F0030797B9014663
:1053C00046EA062343EA034304E008C108C108C1D2
:1053D00008C1103A102AF8D201E008C1121F042AAD
:1053E000FBD20D4601E005F8016B171EA2F1010288
:1053F000F9D1F0BD70B505460E462946022000F0F1
:1054000013F804460CB9204670BD2046FFF7B4FEE1
:105410000120A08300202062FF20A0770020E077F9
:1054200066722046F0E700002DE9F04105460F4680
:105430000F4800EB0516F068FFF702FF044614B9A9
:105440000020BDE8F08125720020607208223946F4
:10545000204600F0C2F9FAF7B9FE804604F10C01CB
:10546000301DFFF7AFFE4046FAF7B4FE2046E8E7EE
:105470004C01002070B50446FAF7A8FE054604F179
:105480000C00FFF7CBFE2846FAF7A4FE2046FFF7F4
:10549000B9FC70BD70B50446FAF798FE054604F1F4
:1054A0000C00FFF7BBFE2846FAF794FE70BD000023
:1054B0002DE9F04104460D4616460C4800EB051751
:1054C00045F08000207208223146204600F085F920
:1054D000FAF77CFE804604F10C01381DFFF772FEDE
:1054E0004046FAF777FEBDE8F08100004C0100204D
:1054F0000146087A00F0800008B1012070470020C2
:10550000FCE700002DE9F041FAF760FE0746164877
:10551000008818BB15480068FEF7A6FF461E144811
:1055200050F83600A0F1140412480068844214D0E8
:1055300011490E700F48056804601048007830B9B2
:1055400004F11C0105F11C00FAF747FE05E004F127
:105550001C0105F11C00FAF740FE00BF3846FAF7BF
:1055600039FEBDE8F08100009C010020A801002068
:1055700094120020A0010020A4010020300100208E
:1055800070B50446FAF722FE0546012084F834007F
:1055900094F835200A4B03EBC20004F11401426871
:1055A000116042684A604160086000BF0549A06B15
:1055B00009680843034908602846FAF70BFE70BDE6
:1055C00094120020A801002070B50446FAF7FEFDF1
:1055D000054604F11400D0E900215160D0E9001221
:1055E00011604060006000BF94F83510094A02EB7A
:1055F000C1000168814201D1012100E0002129B1EF
:105600000548A16B00688843034908602846FAF7FB
:10561000E1FD70BD94120020A80100202DE9F041A9
:1056200004460D4616461F462A4601212046FFF72E
:105630003FFF2046FFF7A0FDA68367720020BDE86C
:10564000F08170B504460025FAF7C0FD064604F166
:105650001400FFF7D3FD28B904F11400FFF74CFD47
:10566000012502E0A08B401CA0833046FAF7B2FD72
:10567000012D01D1FFF746FF002070BD73B505462F
:10568000FAF7A4FD0646A88B002806DDA88B401E6D
:10569000A8833046FAF79EFD28E0019828B93046E5
:1056A000FAF798FD6FF001007CBD00F067FA044640
:1056B000002020636A7A214605F11400FFF726FDD9
:1056C0000198002809DD01AA002104F1440000F03E
:1056D0004BFB04F1440000F08BFB3046FAF77AFDF7
:1056E000FFF710FF206B08B1206BDDE70020DBE740
:1056F00008B50AA0FFF748FD0BA0FFF745FD13A072
:10570000002301220221009013A0FFF73DFD1AA003
:10571000FFF73AFD23A0FFF737FD08BD0A205C2004
:105720007C202F0A000000002D205254202D202024
:10573000202020546872656164204F706572617426
:10574000696E672053797374656D0A004170722029
:105750003139203230313900202F207C205C20204C
:1057600020202025642E25642E2564206275696C16
:10577000642025730A0000002032303036202D20AE
:105780003230313720436F707972696768742062F4
:10579000792072742D746872656164207465616D1E
:1057A0000A000000207472616E73706C616E742068
:1057B0006F6E2053544D33324634303152453A20C7
:1057C0004D722047756F0A0001460A4600E0521CE0
:1057D00010780028FBD1501A704770B50346A2B16B
:1057E00018460C4600BF14F8016B00F8016B3EB977
:1057F00002E0002500F8015B551E2A1EF9D102E0E7
:10580000551E2A1EEFD100BF00BF184670BD000014
:105810002DE9F04105460E46E81C20F0030726F06E
:105820000308B8F1180F09D9A8F11800B84205D338
:10583000A8EB070018381E49086006E032462946E2
:105840001CA0FFF7A1FCBDE8F081294807600468AF
:105850004FF4F5502080164800680C30606000203E
:10586000A060608022496068096808442149086096
:105870004FF4F5500968088001201E4909684880E6
:105880000B4800680C301B490968486008480068EC
:105890000C301849096888600023012216A11848B5
:1058A000FFF7BCFE124800681649086000BFCAE74F
:1058B000400100206D656D20696E69742C20657251
:1058C000726F7220626567696E20616464726573CD
:1058D0007320307825782C20616E6420656E6420FA
:1058E0006164647265737320307825780A00000063
:1058F000340100203801002068656170000000005C
:10590000741200203C01002010B500200B490880D3
:10591000002405E00A4901EBC400FFF74DFC641CBC
:10592000082CF7DB072007490870002006490860AB
:10593000064908600648FFF73FFC10BD9C010020A7
:1059400094120020A4010020A0010020A801002042
:10595000AC01002070B508480068FEF785FD451EC3
:10596000064850F83500A0F114040548046004F11D
:105970001C00FAF778FC70BDA801002094120020EA
:10598000A001002010B5002405E0044901EBC4008B
:10599000FFF715FC641C002CF7D010BDB4010020EB
:1059A00070472DE9FF5F06460F4690461D46DDE92C
:1059B0000EAB31460020FFF737FD8146B9F1000FED
:1059C00003D1002004B0BDE8F09F2846FFF738FC63
:1059D000044624B94846FFF74DFD0020F2E7434650
:1059E0003A46314648468DE8300CFEF7DDFE484623
:1059F000E8E710B50446204600F0C6F810BD0000E8
:105A000070B512480468FAF7E1FB05462046FFF737
:105A1000DBFD042084F8340004F1440000F0C0F9F8
:105A20002046FFF765FD012805D1206F18B92046F3
:105A3000FFF730FD04E004F114010548FFF7C9FB4E
:105A40002846FAF7C7FBFFF75DFD70BDA0010020F7
:105A5000AC01002001E000F001F8FCE770B530E097
:105A6000FAF7B4FB0546FEF735FDE0B118480068CB
:105A7000A0F1140404F11400D0E900215160D0E930
:105A8000001211604060006000BF206F10B120461E
:105A9000216F88472046FFF72BFD012807D12846B4
:105AA000FAF798FB70BD2846FAF794FBFAE7284608
:105AB000FAF790FBA06AFFF7A5F92046FFF7DAFC9A
:105AC00000BFFEF707FD0028CAD100BFEAE70000CB
:105AD000AC0100201FB520200721C200074BCDE9F3
